{
  "contracts/libraries/associated-token-program/LibAssociatedTokenData.sol": {
    "LibAssociatedTokenData": {
      "abi": [
        {
          "inputs": [],
          "name": "CALL_SOLANA",
          "outputs": [
            {
              "internalType": "contract ICallSolana",
              "name": "",
              "type": "ICallSolana"
            }
          ],
          "stateMutability": "view",
          "type": "function"
        }
      ],
      "evm": {
        "bytecode": {
          "linkReferences": {},
          "object": "60808060405234601757607a9081601d823930815050f35b600080fdfe6080806040526004361015601257600080fd5b60003560e01c62b8d84914602557600080fd5b6000366003190112603f57600660ff60981b018152602090f35b600080fdfea2646970667358221220c135ece65cb17ef96d51e529831ac29822dee27a941d35f526cd4980c9646db664736f6c634300081c0033",
          "opcodes": "PUSH1 0x80 DUP1 PUSH1 0x40 MSTORE CALLVALUE PUSH1 0x17 JUMPI PUSH1 0x7A SWAP1 DUP2 PUSH1 0x1D DUP3 CODECOPY ADDRESS DUP2 POP POP RETURN JUMPDEST PUSH1 0x0 DUP1 REVERT INVALID PUSH1 0x80 DUP1 PUSH1 0x40 MSTORE PUSH1 0x4 CALLDATASIZE LT ISZERO PUSH1 0x12 JUMPI PUSH1 0x0 DUP1 REVERT JUMPDEST PUSH1 0x0 CALLDATALOAD PUSH1 0xE0 SHR PUSH3 0xB8D849 EQ PUSH1 0x25 JUMPI PUSH1 0x0 DUP1 REVERT JUMPDEST PUSH1 0x0 CALLDATASIZE PUSH1 0x3 NOT ADD SLT PUSH1 0x3F JUMPI PUSH1 0x6 PUSH1 0xFF PUSH1 0x98 SHL ADD DUP2 MSTORE PUSH1 0x20 SWAP1 RETURN JUMPDEST PUSH1 0x0 DUP1 REVERT INVALID LOG2 PUSH5 0x6970667358 0x22 SLT KECCAK256 0xC1 CALLDATALOAD 0xEC 0xE6 TLOAD 0xB1 PUSH31 0xF96D51E529831AC29822DEE27A941D35F526CD4980C9646DB664736F6C6343 STOP ADDMOD SHR STOP CALLER "
        },
        "methodIdentifiers": {
          "CALL_SOLANA()": "00b8d849"
        }
      },
      "storageLayout": {
        "storage": [],
        "types": null
      }
    }
  }
}