{
  "contracts/stakingContract.sol": {
    "LiquidStaking": {
      "abi": [
        {
          "inputs": [
            {
              "internalType": "address",
              "name": "_wsolToken",
              "type": "address"
            },
            {
              "internalType": "address",
              "name": "_usdtToken",
              "type": "address"
            }
          ],
          "stateMutability": "nonpayable",
          "type": "constructor"
        },
        {
          "inputs": [],
          "name": "AlreadyStaked",
          "type": "error"
        },
        {
          "inputs": [],
          "name": "InvalidAmount",
          "type": "error"
        },
        {
          "inputs": [],
          "name": "InvalidStaker",
          "type": "error"
        },
        {
          "inputs": [],
          "name": "NothingToClaim",
          "type": "error"
        },
        {
          "inputs": [],
          "name": "NothingToUnstake",
          "type": "error"
        },
        {
          "inputs": [
            {
              "internalType": "address",
              "name": "owner",
              "type": "address"
            }
          ],
          "name": "OwnableInvalidOwner",
          "type": "error"
        },
        {
          "inputs": [
            {
              "internalType": "address",
              "name": "account",
              "type": "address"
            }
          ],
          "name": "OwnableUnauthorizedAccount",
          "type": "error"
        },
        {
          "inputs": [],
          "name": "ReentrancyGuardReentrantCall",
          "type": "error"
        },
        {
          "inputs": [],
          "name": "SolanaTransferFailed",
          "type": "error"
        },
        {
          "inputs": [],
          "name": "VestingCliffNotReached",
          "type": "error"
        },
        {
          "anonymous": false,
          "inputs": [
            {
              "indexed": true,
              "internalType": "address",
              "name": "previousOwner",
              "type": "address"
            },
            {
              "indexed": true,
              "internalType": "address",
              "name": "newOwner",
              "type": "address"
            }
          ],
          "name": "OwnershipTransferred",
          "type": "event"
        },
        {
          "anonymous": false,
          "inputs": [
            {
              "indexed": true,
              "internalType": "address",
              "name": "receiver",
              "type": "address"
            },
            {
              "indexed": false,
              "internalType": "uint256",
              "name": "amount",
              "type": "uint256"
            }
          ],
          "name": "PayoutReceived",
          "type": "event"
        },
        {
          "anonymous": false,
          "inputs": [
            {
              "indexed": true,
              "internalType": "address",
              "name": "user",
              "type": "address"
            },
            {
              "indexed": false,
              "internalType": "uint256",
              "name": "wsolAmount",
              "type": "uint256"
            },
            {
              "indexed": false,
              "internalType": "uint256",
              "name": "usdtTokensGranted",
              "type": "uint256"
            }
          ],
          "name": "Staked",
          "type": "event"
        },
        {
          "anonymous": false,
          "inputs": [
            {
              "indexed": true,
              "internalType": "address",
              "name": "user",
              "type": "address"
            },
            {
              "indexed": false,
              "internalType": "uint256",
              "name": "amount",
              "type": "uint256"
            }
          ],
          "name": "TokensClaimed",
          "type": "event"
        },
        {
          "anonymous": false,
          "inputs": [
            {
              "indexed": true,
              "internalType": "address",
              "name": "user",
              "type": "address"
            },
            {
              "indexed": false,
              "internalType": "uint256",
              "name": "wsolAmount",
              "type": "uint256"
            }
          ],
          "name": "Unstaked",
          "type": "event"
        },
        {
          "inputs": [],
          "name": "CALL_SOLANA",
          "outputs": [
            {
              "internalType": "contract ICallSolana",
              "name": "",
              "type": "address"
            }
          ],
          "stateMutability": "view",
          "type": "function"
        },
        {
          "inputs": [],
          "name": "MAX_STAKE",
          "outputs": [
            {
              "internalType": "uint256",
              "name": "",
              "type": "uint256"
            }
          ],
          "stateMutability": "view",
          "type": "function"
        },
        {
          "inputs": [],
          "name": "MIN_STAKE",
          "outputs": [
            {
              "internalType": "uint256",
              "name": "",
              "type": "uint256"
            }
          ],
          "stateMutability": "view",
          "type": "function"
        },
        {
          "inputs": [],
          "name": "STAKE_MULTIPLE",
          "outputs": [
            {
              "internalType": "uint256",
              "name": "",
              "type": "uint256"
            }
          ],
          "stateMutability": "view",
          "type": "function"
        },
        {
          "inputs": [],
          "name": "TOKENS_PER_STAKE",
          "outputs": [
            {
              "internalType": "uint256",
              "name": "",
              "type": "uint256"
            }
          ],
          "stateMutability": "view",
          "type": "function"
        },
        {
          "inputs": [],
          "name": "VESTING_CLIFF",
          "outputs": [
            {
              "internalType": "uint256",
              "name": "",
              "type": "uint256"
            }
          ],
          "stateMutability": "view",
          "type": "function"
        },
        {
          "inputs": [],
          "name": "VESTING_PERIOD",
          "outputs": [
            {
              "internalType": "uint256",
              "name": "",
              "type": "uint256"
            }
          ],
          "stateMutability": "view",
          "type": "function"
        },
        {
          "inputs": [],
          "name": "claim",
          "outputs": [],
          "stateMutability": "nonpayable",
          "type": "function"
        },
        {
          "inputs": [
            {
              "internalType": "address",
              "name": "_address",
              "type": "address"
            }
          ],
          "name": "getNeonAddress",
          "outputs": [
            {
              "internalType": "bytes32",
              "name": "",
              "type": "bytes32"
            }
          ],
          "stateMutability": "view",
          "type": "function"
        },
        {
          "inputs": [],
          "name": "getPayer",
          "outputs": [
            {
              "internalType": "bytes32",
              "name": "",
              "type": "bytes32"
            }
          ],
          "stateMutability": "view",
          "type": "function"
        },
        {
          "inputs": [],
          "name": "owner",
          "outputs": [
            {
              "internalType": "address",
              "name": "",
              "type": "address"
            }
          ],
          "stateMutability": "view",
          "type": "function"
        },
        {
          "inputs": [],
          "name": "renounceOwnership",
          "outputs": [],
          "stateMutability": "nonpayable",
          "type": "function"
        },
        {
          "inputs": [
            {
              "internalType": "uint256",
              "name": "amount",
              "type": "uint256"
            }
          ],
          "name": "stake",
          "outputs": [],
          "stateMutability": "nonpayable",
          "type": "function"
        },
        {
          "inputs": [
            {
              "internalType": "address",
              "name": "",
              "type": "address"
            }
          ],
          "name": "stakes",
          "outputs": [
            {
              "internalType": "uint256",
              "name": "wsolAmount",
              "type": "uint256"
            },
            {
              "internalType": "uint256",
              "name": "usdtTokensGranted",
              "type": "uint256"
            },
            {
              "internalType": "uint256",
              "name": "usdtTokensClaimed",
              "type": "uint256"
            },
            {
              "internalType": "uint256",
              "name": "startTime",
              "type": "uint256"
            },
            {
              "internalType": "bool",
              "name": "unstaked",
              "type": "bool"
            }
          ],
          "stateMutability": "view",
          "type": "function"
        },
        {
          "inputs": [
            {
              "internalType": "address",
              "name": "newOwner",
              "type": "address"
            }
          ],
          "name": "transferOwnership",
          "outputs": [],
          "stateMutability": "nonpayable",
          "type": "function"
        },
        {
          "inputs": [],
          "name": "unstake",
          "outputs": [],
          "stateMutability": "nonpayable",
          "type": "function"
        },
        {
          "inputs": [],
          "name": "usdtToken",
          "outputs": [
            {
              "internalType": "contract IERC20ForSpl",
              "name": "",
              "type": "address"
            }
          ],
          "stateMutability": "view",
          "type": "function"
        },
        {
          "inputs": [
            {
              "internalType": "bytes32",
              "name": "solanaRecipient",
              "type": "bytes32"
            },
            {
              "internalType": "uint64",
              "name": "amount",
              "type": "uint64"
            }
          ],
          "name": "withdrawFeesToSolana",
          "outputs": [],
          "stateMutability": "nonpayable",
          "type": "function"
        },
        {
          "inputs": [],
          "name": "wsolToken",
          "outputs": [
            {
              "internalType": "contract IERC20ForSpl",
              "name": "",
              "type": "address"
            }
          ],
          "stateMutability": "view",
          "type": "function"
        }
      ],
      "evm": {
        "bytecode": {
          "linkReferences": {},
          "object": "60c03461010757601f61101638819003918201601f19168301916001600160401b0383118484101761010c57808492604094855283398101031261010757610052602061004b83610122565b9201610122565b33156100f15760008054336001600160a01b0319821681178355604051949290916001600160a01b0316907f8be0079c531659141344cd1fd0a4f28419497f9722a3daafe3b4186f6b6457e09080a3600180556001600160a01b039081166080521660a052610edf908161013782396080518181816101bf015281816104090152818161064f0152610928015260a05181818161037c01526107870152f35b631e4fbdf760e01b600052600060045260246000fd5b600080fd5b634e487b7160e01b600052604160045260246000fd5b51906001600160a01b03821682036101075756fe608080604052600436101561001357600080fd5b600090813560e01c908162b8d84914610b94575080630197d97214610b77578063154d4aa514610b1357806316934fc414610aa45780632def6620146108e457806330aa81c6146108675780634322f847146103245780634e71d92d1461071c57806363f3dbe5146106ff578063715018a6146106a55780638da5cb5b1461067e5780639282758514610639578063a694fc3a146103ab578063a98ad46c14610366578063c15eb03e14610348578063c98517c514610329578063cb1c2b5c14610324578063d7bcc1451461017f5763f2fde38b146100f157600080fd5b3461017c57602036600319011261017c576004356001600160a01b0381169081900361017a5761011f610e80565b80156101665781546001600160a01b03198116821783556001600160a01b03167f8be0079c531659141344cd1fd0a4f28419497f9722a3daafe3b4186f6b6457e08380a380f35b631e4fbdf760e01b82526004829052602482fd5b505b80fd5b503461017c57604036600319011261017c576024358167ffffffffffffffff82169182810361017a576101b0610e80565b60405163af25c07760e01b81527f00000000000000000000000000000000000000000000000000000000000000006001600160a01b03169190602081600481865afa9081156103195784916102d9575b5091610249916102136020943090610c69565b5060405163af554c5b60e01b8152600480359082015267ffffffffffffffff909116602482015293849283919082906044820190565b03925af19081156102ce57839161029f575b5015610290577f2d5e137b1497c023a774dfe9cbee173d2a334f2ff5e98467662cafa7926f5cdb60208392604051908152a280f35b63040d12f760e21b8252600482fd5b6102c1915060203d6020116102c7575b6102b98183610bd4565b810190610c0c565b3861025b565b503d6102af565b6040513d85823e3d90fd5b91929350506020813d602011610311575b816102f760209383610bd4565b8101031261030c575184929190610249610200565b600080fd5b3d91506102ea565b6040513d86823e3d90fd5b610bb5565b503461017c578060031936011261017c576020604051633b9aca008152f35b503461017c578060031936011261017c576020604051620186a08152f35b503461017c578060031936011261017c576040517f00000000000000000000000000000000000000000000000000000000000000006001600160a01b03168152602090f35b503461017c57602036600319011261017c576004356103c8610c47565b331561062a573382526002602052604082205461061b576305f5e1008110158061060d575b806105ff575b156105f05760405163af25c07760e01b815282907f00000000000000000000000000000000000000000000000000000000000000006001600160a01b031690602081600481855afa9081156102ce5783916105b8575b5060209161045b61048f923090610c69565b60405163af554c5b60e01b8152600481019190915267ffffffffffffffff8616602482015293849283919082906044820190565b03925af19081156102ce578391610599575b5015610290576305f5e1008104620186a0810290808204620186a014901517156105855760405160a0810181811067ffffffffffffffff8211176105715760405282815260046020820191838352604081018681526060820190428252608083019488865233895260026020526040892093518455516001840155516002830155516003820155019051151560ff8019835416911617905560405191825260208201527f1449c6dd7851abc30abf37f57715f492010519147cc2652fbc38202c18a6ee9060403392a26001805580f35b634e487b7160e01b85526041600452602485fd5b634e487b7160e01b83526011600452602483fd5b6105b2915060203d6020116102c7576102b98183610bd4565b386104a1565b9250506020823d6020116105e8575b816105d460209383610bd4565b8101031261030c5790518391906020610449565b3d91506105c7565b63162908e360e11b8252600482fd5b506305f5e1008106156103f3565b50633b9aca008111156103ed565b630ae3514d60e01b8252600482fd5b63707ef02360e01b8252600482fd5b503461017c578060031936011261017c576040517f00000000000000000000000000000000000000000000000000000000000000006001600160a01b03168152602090f35b503461017c578060031936011261017c57546040516001600160a01b039091168152602090f35b503461017c578060031936011261017c576106be610e80565b80546001600160a01b03198116825581906001600160a01b03167f8be0079c531659141344cd1fd0a4f28419497f9722a3daafe3b4186f6b6457e08280a380f35b503461017c578060031936011261017c5760206040516101a48152f35b503461017c578060031936011261017c57610735610c47565b3381526002602052604081209060038201546101a4810180911161085357421061084457600261076433610dfc565b92019161077383548092610c24565b9283156108355783820180921161058557557f00000000000000000000000000000000000000000000000000000000000000006001600160a01b0316803b1561017a578180916044604051809481936340c10f1960e01b83523360048401528860248401525af1801561082a5761081a575b50906040519081527f896e034966eaaf1adc54acc0f257056febbd300c9e47182cf761982cf1f5e43060203392a26001805580f35b8161082491610bd4565b386107e5565b6040513d84823e3d90fd5b6312d37ee560e31b8352600483fd5b632d47614560e21b8152600490fd5b634e487b7160e01b82526011600452602482fd5b503461017c578060031936011261017c5760405163185540e360e11b8152602081600481600660ff60981b015afa90811561082a5782916108ae575b602082604051908152f35b90506020813d6020116108dc575b816108c960209383610bd4565b8101031261017a576020915051386108a3565b3d91506108bc565b503461017c578060031936011261017c576108fd610c47565b338152600260205260408120805480158015610a96575b610a875760405163af25c07760e01b8152907f00000000000000000000000000000000000000000000000000000000000000006001600160a01b031684602084600481855afa938415610a7a578194610a36575b509067ffffffffffffffff602093926109856109bc963390610c69565b936040519687958694859363af554c5b60e01b855216906004840190929167ffffffffffffffff6020916040840195845216910152565b03925af19081156102ce578391610a17575b50156102905760048101600160ff19825416179055546040519081527f0f5bb82176feb1b5e747e28471aa92156a04d9f3ab9f45f28e2d704232b93f7560203392a26001805580f35b610a30915060203d6020116102c7576102b98183610bd4565b386109ce565b935091906020843d602011610a72575b81610a5360209383610bd4565b81010312610a6e57925192909167ffffffffffffffff610968565b8280fd5b3d9150610a46565b50604051903d90823e3d90fd5b63422f6e3560e11b8352600483fd5b5060ff600483015416610914565b503461017c57602036600319011261017c576004356001600160a01b0381169081900361017a578160409160a09352600260205220805490600181015490600281015460ff60046003840154930154169260405194855260208501526040840152606083015215156080820152f35b503461017c57602036600319011261017c576004356001600160a01b0381169081900361017a5760405163154d4aa560e01b81526004810191909152602081602481600660ff60981b015afa90811561082a5782916108ae57602082604051908152f35b503461017c578060031936011261017c5760206040516107088152f35b90503461017a578160031936011261017a57600660ff60981b018152602090f35b3461030c57600036600319011261030c5760206040516305f5e1008152f35b90601f8019910116810190811067ffffffffffffffff821117610bf657604052565b634e487b7160e01b600052604160045260246000fd5b9081602091031261030c5751801515810361030c5790565b91908203918211610c3157565b634e487b7160e01b600052601160045260246000fd5b600260015414610c58576002600155565b633ee5aeb560e01b60005260046000fd5b60405163154d4aa560e01b81526001600160a01b039092166004830152602082602481600660ff60981b015afa918215610da457600092610dc8575b506040519160208301527f06ddf6e1d765a193d9cbe146ceeb79ac1cb485ed5f5b37913a8cf5857eff00a96040830152606082015260608152610ce9608082610bd4565b60405190634a890f3160e01b82527f8c97258f4e2489f1bb3d1029148e0d830b5a1399daff1084048e7bd8dbe9f8596004830152604060248301528181519182604483015260005b838110610db05750506000828201606490810191909152602092601f01601f191682018290030181600660ff60981b015afa908115610da457600091610d75575090565b90506020813d602011610d9c575b81610d9060209383610bd4565b8101031261030c575190565b3d9150610d83565b6040513d6000823e3d90fd5b60208282018101516064878401015285935001610d31565b9091506020813d602011610df4575b81610de460209383610bd4565b8101031261030c57519038610ca5565b3d9150610dd7565b6001600160a01b0316600090815260026020526040902060038101546101a48101808211610c31574210610e7957610e349042610c24565b906107088210801590610e6b575b610e625760010154818102918183041490151715610c3157610708900490565b60019150015490565b5060ff600482015416610e42565b5050600090565b6000546001600160a01b03163303610e9457565b63118cdaa760e01b6000523360045260246000fdfea26469706673582212208512b5746b04cd32e306a13fb76d4eacc34676dcf8299b1a78dec45fe1545ec464736f6c634300081c0033",
          "opcodes": "PUSH1 0xC0 CALLVALUE PUSH2 0x107 JUMPI PUSH1 0x1F PUSH2 0x1016 CODESIZE DUP2 SWAP1 SUB SWAP2 DUP3 ADD PUSH1 0x1F NOT AND DUP4 ADD SWAP2 PUSH1 0x1 PUSH1 0x1 PUSH1 0x40 SHL SUB DUP4 GT DUP5 DUP5 LT OR PUSH2 0x10C JUMPI DUP1 DUP5 SWAP3 PUSH1 0x40 SWAP5 DUP6 MSTORE DUP4 CODECOPY DUP2 ADD SUB SLT PUSH2 0x107 JUMPI PUSH2 0x52 PUSH1 0x20 PUSH2 0x4B DUP4 PUSH2 0x122 JUMP JUMPDEST SWAP3 ADD PUSH2 0x122 JUMP JUMPDEST CALLER ISZERO PUSH2 0xF1 JUMPI PUSH1 0x0 DUP1 SLOAD CALLER PUSH1 0x1 PUSH1 0x1 PUSH1 0xA0 SHL SUB NOT DUP3 AND DUP2 OR DUP4 SSTORE PUSH1 0x40 MLOAD SWAP5 SWAP3 SWAP1 SWAP2 PUSH1 0x1 PUSH1 0x1 PUSH1 0xA0 SHL SUB AND SWAP1 PUSH32 0x8BE0079C531659141344CD1FD0A4F28419497F9722A3DAAFE3B4186F6B6457E0 SWAP1 DUP1 LOG3 PUSH1 0x1 DUP1 SSTORE PUSH1 0x1 PUSH1 0x1 PUSH1 0xA0 SHL SUB SWAP1 DUP2 AND PUSH1 0x80 MSTORE AND PUSH1 0xA0 MSTORE PUSH2 0xEDF SWAP1 DUP2 PUSH2 0x137 DUP3 CODECOPY PUSH1 0x80 MLOAD DUP2 DUP2 DUP2 PUSH2 0x1BF ADD MSTORE DUP2 DUP2 PUSH2 0x409 ADD MSTORE DUP2 DUP2 PUSH2 0x64F ADD MSTORE PUSH2 0x928 ADD MSTORE PUSH1 0xA0 MLOAD DUP2 DUP2 DUP2 PUSH2 0x37C ADD MSTORE PUSH2 0x787 ADD MSTORE RETURN JUMPDEST PUSH4 0x1E4FBDF7 PUSH1 0xE0 SHL PUSH1 0x0 MSTORE PUSH1 0x0 PUSH1 0x4 MSTORE PUSH1 0x24 PUSH1 0x0 REVERT JUMPDEST PUSH1 0x0 DUP1 REVERT JUMPDEST PUSH4 0x4E487B71 PUSH1 0xE0 SHL PUSH1 0x0 MSTORE PUSH1 0x41 PUSH1 0x4 MSTORE PUSH1 0x24 PUSH1 0x0 REVERT JUMPDEST MLOAD SWAP1 PUSH1 0x1 PUSH1 0x1 PUSH1 0xA0 SHL SUB DUP3 AND DUP3 SUB PUSH2 0x107 JUMPI JUMP INVALID PUSH1 0x80 DUP1 PUSH1 0x40 MSTORE PUSH1 0x4 CALLDATASIZE LT ISZERO PUSH2 0x13 JUMPI PUSH1 0x0 DUP1 REVERT JUMPDEST PUSH1 0x0 SWAP1 DUP2 CALLDATALOAD PUSH1 0xE0 SHR SWAP1 DUP2 PUSH3 0xB8D849 EQ PUSH2 0xB94 JUMPI POP DUP1 PUSH4 0x197D972 EQ PUSH2 0xB77 JUMPI DUP1 PUSH4 0x154D4AA5 EQ PUSH2 0xB13 JUMPI DUP1 PUSH4 0x16934FC4 EQ PUSH2 0xAA4 JUMPI DUP1 PUSH4 0x2DEF6620 EQ PUSH2 0x8E4 JUMPI DUP1 PUSH4 0x30AA81C6 EQ PUSH2 0x867 JUMPI DUP1 PUSH4 0x4322F847 EQ PUSH2 0x324 JUMPI DUP1 PUSH4 0x4E71D92D EQ PUSH2 0x71C JUMPI DUP1 PUSH4 0x63F3DBE5 EQ PUSH2 0x6FF JUMPI DUP1 PUSH4 0x715018A6 EQ PUSH2 0x6A5 JUMPI DUP1 PUSH4 0x8DA5CB5B EQ PUSH2 0x67E JUMPI DUP1 PUSH4 0x92827585 EQ PUSH2 0x639 JUMPI DUP1 PUSH4 0xA694FC3A EQ PUSH2 0x3AB JUMPI DUP1 PUSH4 0xA98AD46C EQ PUSH2 0x366 JUMPI DUP1 PUSH4 0xC15EB03E EQ PUSH2 0x348 JUMPI DUP1 PUSH4 0xC98517C5 EQ PUSH2 0x329 JUMPI DUP1 PUSH4 0xCB1C2B5C EQ PUSH2 0x324 JUMPI DUP1 PUSH4 0xD7BCC145 EQ PUSH2 0x17F JUMPI PUSH4 0xF2FDE38B EQ PUSH2 0xF1 JUMPI PUSH1 0x0 DUP1 REVERT JUMPDEST CALLVALUE PUSH2 0x17C JUMPI PUSH1 0x20 CALLDATASIZE PUSH1 0x3 NOT ADD SLT PUSH2 0x17C JUMPI PUSH1 0x4 CALLDATALOAD PUSH1 0x1 PUSH1 0x1 PUSH1 0xA0 SHL SUB DUP2 AND SWAP1 DUP2 SWAP1 SUB PUSH2 0x17A JUMPI PUSH2 0x11F PUSH2 0xE80 JUMP JUMPDEST DUP1 ISZERO PUSH2 0x166 JUMPI DUP2 SLOAD PUSH1 0x1 PUSH1 0x1 PUSH1 0xA0 SHL SUB NOT DUP2 AND DUP3 OR DUP4 SSTORE PUSH1 0x1 PUSH1 0x1 PUSH1 0xA0 SHL SUB AND PUSH32 0x8BE0079C531659141344CD1FD0A4F28419497F9722A3DAAFE3B4186F6B6457E0 DUP4 DUP1 LOG3 DUP1 RETURN JUMPDEST PUSH4 0x1E4FBDF7 PUSH1 0xE0 SHL DUP3 MSTORE PUSH1 0x4 DUP3 SWAP1 MSTORE PUSH1 0x24 DUP3 REVERT JUMPDEST POP JUMPDEST DUP1 REVERT JUMPDEST POP CALLVALUE PUSH2 0x17C JUMPI PUSH1 0x40 CALLDATASIZE PUSH1 0x3 NOT ADD SLT PUSH2 0x17C JUMPI PUSH1 0x24 CALLDATALOAD DUP2 PUSH8 0xFFFFFFFFFFFFFFFF DUP3 AND SWAP2 DUP3 DUP2 SUB PUSH2 0x17A JUMPI PUSH2 0x1B0 PUSH2 0xE80 JUMP JUMPDEST PUSH1 0x40 MLOAD PUSH4 0xAF25C077 PUSH1 0xE0 SHL DUP2 MSTORE PUSH32 0x0 PUSH1 0x1 PUSH1 0x1 PUSH1 0xA0 SHL SUB AND SWAP2 SWAP1 PUSH1 0x20 DUP2 PUSH1 0x4 DUP2 DUP7 GAS STATICCALL SWAP1 DUP2 ISZERO PUSH2 0x319 JUMPI DUP5 SWAP2 PUSH2 0x2D9 JUMPI JUMPDEST POP SWAP2 PUSH2 0x249 SWAP2 PUSH2 0x213 PUSH1 0x20 SWAP5 ADDRESS SWAP1 PUSH2 0xC69 JUMP JUMPDEST POP PUSH1 0x40 MLOAD PUSH4 0xAF554C5B PUSH1 0xE0 SHL DUP2 MSTORE PUSH1 0x4 DUP1 CALLDATALOAD SWAP1 DUP3 ADD MSTORE PUSH8 0xFFFFFFFFFFFFFFFF SWAP1 SWAP2 AND PUSH1 0x24 DUP3 ADD MSTORE SWAP4 DUP5 SWAP3 DUP4 SWAP2 SWAP1 DUP3 SWAP1 PUSH1 0x44 DUP3 ADD SWAP1 JUMP JUMPDEST SUB SWAP3 GAS CALL SWAP1 DUP2 ISZERO PUSH2 0x2CE JUMPI DUP4 SWAP2 PUSH2 0x29F JUMPI JUMPDEST POP ISZERO PUSH2 0x290 JUMPI PUSH32 0x2D5E137B1497C023A774DFE9CBEE173D2A334F2FF5E98467662CAFA7926F5CDB PUSH1 0x20 DUP4 SWAP3 PUSH1 0x40 MLOAD SWAP1 DUP2 MSTORE LOG2 DUP1 RETURN JUMPDEST PUSH4 0x40D12F7 PUSH1 0xE2 SHL DUP3 MSTORE PUSH1 0x4 DUP3 REVERT JUMPDEST PUSH2 0x2C1 SWAP2 POP PUSH1 0x20 RETURNDATASIZE PUSH1 0x20 GT PUSH2 0x2C7 JUMPI JUMPDEST PUSH2 0x2B9 DUP2 DUP4 PUSH2 0xBD4 JUMP JUMPDEST DUP2 ADD SWAP1 PUSH2 0xC0C JUMP JUMPDEST CODESIZE PUSH2 0x25B JUMP JUMPDEST POP RETURNDATASIZE PUSH2 0x2AF JUMP JUMPDEST PUSH1 0x40 MLOAD RETURNDATASIZE DUP6 DUP3 RETURNDATACOPY RETURNDATASIZE SWAP1 REVERT JUMPDEST SWAP2 SWAP3 SWAP4 POP POP PUSH1 0x20 DUP2 RETURNDATASIZE PUSH1 0x20 GT PUSH2 0x311 JUMPI JUMPDEST DUP2 PUSH2 0x2F7 PUSH1 0x20 SWAP4 DUP4 PUSH2 0xBD4 JUMP JUMPDEST DUP2 ADD SUB SLT PUSH2 0x30C JUMPI MLOAD DUP5 SWAP3 SWAP2 SWAP1 PUSH2 0x249 PUSH2 0x200 JUMP JUMPDEST PUSH1 0x0 DUP1 REVERT JUMPDEST RETURNDATASIZE SWAP2 POP PUSH2 0x2EA JUMP JUMPDEST PUSH1 0x40 MLOAD RETURNDATASIZE DUP7 DUP3 RETURNDATACOPY RETURNDATASIZE SWAP1 REVERT JUMPDEST PUSH2 0xBB5 JUMP JUMPDEST POP CALLVALUE PUSH2 0x17C JUMPI DUP1 PUSH1 0x3 NOT CALLDATASIZE ADD SLT PUSH2 0x17C JUMPI PUSH1 0x20 PUSH1 0x40 MLOAD PUSH4 0x3B9ACA00 DUP2 MSTORE RETURN JUMPDEST POP CALLVALUE PUSH2 0x17C JUMPI DUP1 PUSH1 0x3 NOT CALLDATASIZE ADD SLT PUSH2 0x17C JUMPI PUSH1 0x20 PUSH1 0x40 MLOAD PUSH3 0x186A0 DUP2 MSTORE RETURN JUMPDEST POP CALLVALUE PUSH2 0x17C JUMPI DUP1 PUSH1 0x3 NOT CALLDATASIZE ADD SLT PUSH2 0x17C JUMPI PUSH1 0x40 MLOAD PUSH32 0x0 PUSH1 0x1 PUSH1 0x1 PUSH1 0xA0 SHL SUB AND DUP2 MSTORE PUSH1 0x20 SWAP1 RETURN JUMPDEST POP CALLVALUE PUSH2 0x17C JUMPI PUSH1 0x20 CALLDATASIZE PUSH1 0x3 NOT ADD SLT PUSH2 0x17C JUMPI PUSH1 0x4 CALLDATALOAD PUSH2 0x3C8 PUSH2 0xC47 JUMP JUMPDEST CALLER ISZERO PUSH2 0x62A JUMPI CALLER DUP3 MSTORE PUSH1 0x2 PUSH1 0x20 MSTORE PUSH1 0x40 DUP3 KECCAK256 SLOAD PUSH2 0x61B JUMPI PUSH4 0x5F5E100 DUP2 LT ISZERO DUP1 PUSH2 0x60D JUMPI JUMPDEST DUP1 PUSH2 0x5FF JUMPI JUMPDEST ISZERO PUSH2 0x5F0 JUMPI PUSH1 0x40 MLOAD PUSH4 0xAF25C077 PUSH1 0xE0 SHL DUP2 MSTORE DUP3 SWAP1 PUSH32 0x0 PUSH1 0x1 PUSH1 0x1 PUSH1 0xA0 SHL SUB AND SWAP1 PUSH1 0x20 DUP2 PUSH1 0x4 DUP2 DUP6 GAS STATICCALL SWAP1 DUP2 ISZERO PUSH2 0x2CE JUMPI DUP4 SWAP2 PUSH2 0x5B8 JUMPI JUMPDEST POP PUSH1 0x20 SWAP2 PUSH2 0x45B PUSH2 0x48F SWAP3 ADDRESS SWAP1 PUSH2 0xC69 JUMP JUMPDEST PUSH1 0x40 MLOAD PUSH4 0xAF554C5B PUSH1 0xE0 SHL DUP2 MSTORE PUSH1 0x4 DUP2 ADD SWAP2 SWAP1 SWAP2 MSTORE PUSH8 0xFFFFFFFFFFFFFFFF DUP7 AND PUSH1 0x24 DUP3 ADD MSTORE SWAP4 DUP5 SWAP3 DUP4 SWAP2 SWAP1 DUP3 SWAP1 PUSH1 0x44 DUP3 ADD SWAP1 JUMP JUMPDEST SUB SWAP3 GAS CALL SWAP1 DUP2 ISZERO PUSH2 0x2CE JUMPI DUP4 SWAP2 PUSH2 0x599 JUMPI JUMPDEST POP ISZERO PUSH2 0x290 JUMPI PUSH4 0x5F5E100 DUP2 DIV PUSH3 0x186A0 DUP2 MUL SWAP1 DUP1 DUP3 DIV PUSH3 0x186A0 EQ SWAP1 ISZERO OR ISZERO PUSH2 0x585 JUMPI PUSH1 0x40 MLOAD PUSH1 0xA0 DUP2 ADD DUP2 DUP2 LT PUSH8 0xFFFFFFFFFFFFFFFF DUP3 GT OR PUSH2 0x571 JUMPI PUSH1 0x40 MSTORE DUP3 DUP2 MSTORE PUSH1 0x4 PUSH1 0x20 DUP3 ADD SWAP2 DUP4 DUP4 MSTORE PUSH1 0x40 DUP2 ADD DUP7 DUP2 MSTORE PUSH1 0x60 DUP3 ADD SWAP1 TIMESTAMP DUP3 MSTORE PUSH1 0x80 DUP4 ADD SWAP5 DUP9 DUP7 MSTORE CALLER DUP10 MSTORE PUSH1 0x2 PUSH1 0x20 MSTORE PUSH1 0x40 DUP10 KECCAK256 SWAP4 MLOAD DUP5 SSTORE MLOAD PUSH1 0x1 DUP5 ADD SSTORE MLOAD PUSH1 0x2 DUP4 ADD SSTORE MLOAD PUSH1 0x3 DUP3 ADD SSTORE ADD SWAP1 MLOAD ISZERO ISZERO PUSH1 0xFF DUP1 NOT DUP4 SLOAD AND SWAP2 AND OR SWAP1 SSTORE PUSH1 0x40 MLOAD SWAP2 DUP3 MSTORE PUSH1 0x20 DUP3 ADD MSTORE PUSH32 0x1449C6DD7851ABC30ABF37F57715F492010519147CC2652FBC38202C18A6EE90 PUSH1 0x40 CALLER SWAP3 LOG2 PUSH1 0x1 DUP1 SSTORE DUP1 RETURN JUMPDEST PUSH4 0x4E487B71 PUSH1 0xE0 SHL DUP6 MSTORE PUSH1 0x41 PUSH1 0x4 MSTORE PUSH1 0x24 DUP6 REVERT JUMPDEST PUSH4 0x4E487B71 PUSH1 0xE0 SHL DUP4 MSTORE PUSH1 0x11 PUSH1 0x4 MSTORE PUSH1 0x24 DUP4 REVERT JUMPDEST PUSH2 0x5B2 SWAP2 POP PUSH1 0x20 RETURNDATASIZE PUSH1 0x20 GT PUSH2 0x2C7 JUMPI PUSH2 0x2B9 DUP2 DUP4 PUSH2 0xBD4 JUMP JUMPDEST CODESIZE PUSH2 0x4A1 JUMP JUMPDEST SWAP3 POP POP PUSH1 0x20 DUP3 RETURNDATASIZE PUSH1 0x20 GT PUSH2 0x5E8 JUMPI JUMPDEST DUP2 PUSH2 0x5D4 PUSH1 0x20 SWAP4 DUP4 PUSH2 0xBD4 JUMP JUMPDEST DUP2 ADD SUB SLT PUSH2 0x30C JUMPI SWAP1 MLOAD DUP4 SWAP2 SWAP1 PUSH1 0x20 PUSH2 0x449 JUMP JUMPDEST RETURNDATASIZE SWAP2 POP PUSH2 0x5C7 JUMP JUMPDEST PUSH4 0x162908E3 PUSH1 0xE1 SHL DUP3 MSTORE PUSH1 0x4 DUP3 REVERT JUMPDEST POP PUSH4 0x5F5E100 DUP2 MOD ISZERO PUSH2 0x3F3 JUMP JUMPDEST POP PUSH4 0x3B9ACA00 DUP2 GT ISZERO PUSH2 0x3ED JUMP JUMPDEST PUSH4 0xAE3514D PUSH1 0xE0 SHL DUP3 MSTORE PUSH1 0x4 DUP3 REVERT JUMPDEST PUSH4 0x707EF023 PUSH1 0xE0 SHL DUP3 MSTORE PUSH1 0x4 DUP3 REVERT JUMPDEST POP CALLVALUE PUSH2 0x17C JUMPI DUP1 PUSH1 0x3 NOT CALLDATASIZE ADD SLT PUSH2 0x17C JUMPI PUSH1 0x40 MLOAD PUSH32 0x0 PUSH1 0x1 PUSH1 0x1 PUSH1 0xA0 SHL SUB AND DUP2 MSTORE PUSH1 0x20 SWAP1 RETURN JUMPDEST POP CALLVALUE PUSH2 0x17C JUMPI DUP1 PUSH1 0x3 NOT CALLDATASIZE ADD SLT PUSH2 0x17C JUMPI SLOAD PUSH1 0x40 MLOAD PUSH1 0x1 PUSH1 0x1 PUSH1 0xA0 SHL SUB SWAP1 SWAP2 AND DUP2 MSTORE PUSH1 0x20 SWAP1 RETURN JUMPDEST POP CALLVALUE PUSH2 0x17C JUMPI DUP1 PUSH1 0x3 NOT CALLDATASIZE ADD SLT PUSH2 0x17C JUMPI PUSH2 0x6BE PUSH2 0xE80 JUMP JUMPDEST DUP1 SLOAD PUSH1 0x1 PUSH1 0x1 PUSH1 0xA0 SHL SUB NOT DUP2 AND DUP3 SSTORE DUP2 SWAP1 PUSH1 0x1 PUSH1 0x1 PUSH1 0xA0 SHL SUB AND PUSH32 0x8BE0079C531659141344CD1FD0A4F28419497F9722A3DAAFE3B4186F6B6457E0 DUP3 DUP1 LOG3 DUP1 RETURN JUMPDEST POP CALLVALUE PUSH2 0x17C JUMPI DUP1 PUSH1 0x3 NOT CALLDATASIZE ADD SLT PUSH2 0x17C JUMPI PUSH1 0x20 PUSH1 0x40 MLOAD PUSH2 0x1A4 DUP2 MSTORE RETURN JUMPDEST POP CALLVALUE PUSH2 0x17C JUMPI DUP1 PUSH1 0x3 NOT CALLDATASIZE ADD SLT PUSH2 0x17C JUMPI PUSH2 0x735 PUSH2 0xC47 JUMP JUMPDEST CALLER DUP2 MSTORE PUSH1 0x2 PUSH1 0x20 MSTORE PUSH1 0x40 DUP2 KECCAK256 SWAP1 PUSH1 0x3 DUP3 ADD SLOAD PUSH2 0x1A4 DUP2 ADD DUP1 SWAP2 GT PUSH2 0x853 JUMPI TIMESTAMP LT PUSH2 0x844 JUMPI PUSH1 0x2 PUSH2 0x764 CALLER PUSH2 0xDFC JUMP JUMPDEST SWAP3 ADD SWAP2 PUSH2 0x773 DUP4 SLOAD DUP1 SWAP3 PUSH2 0xC24 JUMP JUMPDEST SWAP3 DUP4 ISZERO PUSH2 0x835 JUMPI DUP4 DUP3 ADD DUP1 SWAP3 GT PUSH2 0x585 JUMPI SSTORE PUSH32 0x0 PUSH1 0x1 PUSH1 0x1 PUSH1 0xA0 SHL SUB AND DUP1 EXTCODESIZE ISZERO PUSH2 0x17A JUMPI DUP2 DUP1 SWAP2 PUSH1 0x44 PUSH1 0x40 MLOAD DUP1 SWAP5 DUP2 SWAP4 PUSH4 0x40C10F19 PUSH1 0xE0 SHL DUP4 MSTORE CALLER PUSH1 0x4 DUP5 ADD MSTORE DUP9 PUSH1 0x24 DUP5 ADD MSTORE GAS CALL DUP1 ISZERO PUSH2 0x82A JUMPI PUSH2 0x81A JUMPI JUMPDEST POP SWAP1 PUSH1 0x40 MLOAD SWAP1 DUP2 MSTORE PUSH32 0x896E034966EAAF1ADC54ACC0F257056FEBBD300C9E47182CF761982CF1F5E430 PUSH1 0x20 CALLER SWAP3 LOG2 PUSH1 0x1 DUP1 SSTORE DUP1 RETURN JUMPDEST DUP2 PUSH2 0x824 SWAP2 PUSH2 0xBD4 JUMP JUMPDEST CODESIZE PUSH2 0x7E5 JUMP JUMPDEST PUSH1 0x40 MLOAD RETURNDATASIZE DUP5 DUP3 RETURNDATACOPY RETURNDATASIZE SWAP1 REVERT JUMPDEST PUSH4 0x12D37EE5 PUSH1 0xE3 SHL DUP4 MSTORE PUSH1 0x4 DUP4 REVERT JUMPDEST PUSH4 0x2D476145 PUSH1 0xE2 SHL DUP2 MSTORE PUSH1 0x4 SWAP1 REVERT JUMPDEST PUSH4 0x4E487B71 PUSH1 0xE0 SHL DUP3 MSTORE PUSH1 0x11 PUSH1 0x4 MSTORE PUSH1 0x24 DUP3 REVERT JUMPDEST POP CALLVALUE PUSH2 0x17C JUMPI DUP1 PUSH1 0x3 NOT CALLDATASIZE ADD SLT PUSH2 0x17C JUMPI PUSH1 0x40 MLOAD PUSH4 0x185540E3 PUSH1 0xE1 SHL DUP2 MSTORE PUSH1 0x20 DUP2 PUSH1 0x4 DUP2 PUSH1 0x6 PUSH1 0xFF PUSH1 0x98 SHL ADD GAS STATICCALL SWAP1 DUP2 ISZERO PUSH2 0x82A JUMPI DUP3 SWAP2 PUSH2 0x8AE JUMPI JUMPDEST PUSH1 0x20 DUP3 PUSH1 0x40 MLOAD SWAP1 DUP2 MSTORE RETURN JUMPDEST SWAP1 POP PUSH1 0x20 DUP2 RETURNDATASIZE PUSH1 0x20 GT PUSH2 0x8DC JUMPI JUMPDEST DUP2 PUSH2 0x8C9 PUSH1 0x20 SWAP4 DUP4 PUSH2 0xBD4 JUMP JUMPDEST DUP2 ADD SUB SLT PUSH2 0x17A JUMPI PUSH1 0x20 SWAP2 POP MLOAD CODESIZE PUSH2 0x8A3 JUMP JUMPDEST RETURNDATASIZE SWAP2 POP PUSH2 0x8BC JUMP JUMPDEST POP CALLVALUE PUSH2 0x17C JUMPI DUP1 PUSH1 0x3 NOT CALLDATASIZE ADD SLT PUSH2 0x17C JUMPI PUSH2 0x8FD PUSH2 0xC47 JUMP JUMPDEST CALLER DUP2 MSTORE PUSH1 0x2 PUSH1 0x20 MSTORE PUSH1 0x40 DUP2 KECCAK256 DUP1 SLOAD DUP1 ISZERO DUP1 ISZERO PUSH2 0xA96 JUMPI JUMPDEST PUSH2 0xA87 JUMPI PUSH1 0x40 MLOAD PUSH4 0xAF25C077 PUSH1 0xE0 SHL DUP2 MSTORE SWAP1 PUSH32 0x0 PUSH1 0x1 PUSH1 0x1 PUSH1 0xA0 SHL SUB AND DUP5 PUSH1 0x20 DUP5 PUSH1 0x4 DUP2 DUP6 GAS STATICCALL SWAP4 DUP5 ISZERO PUSH2 0xA7A JUMPI DUP2 SWAP5 PUSH2 0xA36 JUMPI JUMPDEST POP SWAP1 PUSH8 0xFFFFFFFFFFFFFFFF PUSH1 0x20 SWAP4 SWAP3 PUSH2 0x985 PUSH2 0x9BC SWAP7 CALLER SWAP1 PUSH2 0xC69 JUMP JUMPDEST SWAP4 PUSH1 0x40 MLOAD SWAP7 DUP8 SWAP6 DUP7 SWAP5 DUP6 SWAP4 PUSH4 0xAF554C5B PUSH1 0xE0 SHL DUP6 MSTORE AND SWAP1 PUSH1 0x4 DUP5 ADD SWAP1 SWAP3 SWAP2 PUSH8 0xFFFFFFFFFFFFFFFF PUSH1 0x20 SWAP2 PUSH1 0x40 DUP5 ADD SWAP6 DUP5 MSTORE AND SWAP2 ADD MSTORE JUMP JUMPDEST SUB SWAP3 GAS CALL SWAP1 DUP2 ISZERO PUSH2 0x2CE JUMPI DUP4 SWAP2 PUSH2 0xA17 JUMPI JUMPDEST POP ISZERO PUSH2 0x290 JUMPI PUSH1 0x4 DUP2 ADD PUSH1 0x1 PUSH1 0xFF NOT DUP3 SLOAD AND OR SWAP1 SSTORE SLOAD PUSH1 0x40 MLOAD SWAP1 DUP2 MSTORE PUSH32 0xF5BB82176FEB1B5E747E28471AA92156A04D9F3AB9F45F28E2D704232B93F75 PUSH1 0x20 CALLER SWAP3 LOG2 PUSH1 0x1 DUP1 SSTORE DUP1 RETURN JUMPDEST PUSH2 0xA30 SWAP2 POP PUSH1 0x20 RETURNDATASIZE PUSH1 0x20 GT PUSH2 0x2C7 JUMPI PUSH2 0x2B9 DUP2 DUP4 PUSH2 0xBD4 JUMP JUMPDEST CODESIZE PUSH2 0x9CE JUMP JUMPDEST SWAP4 POP SWAP2 SWAP1 PUSH1 0x20 DUP5 RETURNDATASIZE PUSH1 0x20 GT PUSH2 0xA72 JUMPI JUMPDEST DUP2 PUSH2 0xA53 PUSH1 0x20 SWAP4 DUP4 PUSH2 0xBD4 JUMP JUMPDEST DUP2 ADD SUB SLT PUSH2 0xA6E JUMPI SWAP3 MLOAD SWAP3 SWAP1 SWAP2 PUSH8 0xFFFFFFFFFFFFFFFF PUSH2 0x968 JUMP JUMPDEST DUP3 DUP1 REVERT JUMPDEST RETURNDATASIZE SWAP2 POP PUSH2 0xA46 JUMP JUMPDEST POP PUSH1 0x40 MLOAD SWAP1 RETURNDATASIZE SWAP1 DUP3 RETURNDATACOPY RETURNDATASIZE SWAP1 REVERT JUMPDEST PUSH4 0x422F6E35 PUSH1 0xE1 SHL DUP4 MSTORE PUSH1 0x4 DUP4 REVERT JUMPDEST POP PUSH1 0xFF PUSH1 0x4 DUP4 ADD SLOAD AND PUSH2 0x914 JUMP JUMPDEST POP CALLVALUE PUSH2 0x17C JUMPI PUSH1 0x20 CALLDATASIZE PUSH1 0x3 NOT ADD SLT PUSH2 0x17C JUMPI PUSH1 0x4 CALLDATALOAD PUSH1 0x1 PUSH1 0x1 PUSH1 0xA0 SHL SUB DUP2 AND SWAP1 DUP2 SWAP1 SUB PUSH2 0x17A JUMPI DUP2 PUSH1 0x40 SWAP2 PUSH1 0xA0 SWAP4 MSTORE PUSH1 0x2 PUSH1 0x20 MSTORE KECCAK256 DUP1 SLOAD SWAP1 PUSH1 0x1 DUP2 ADD SLOAD SWAP1 PUSH1 0x2 DUP2 ADD SLOAD PUSH1 0xFF PUSH1 0x4 PUSH1 0x3 DUP5 ADD SLOAD SWAP4 ADD SLOAD AND SWAP3 PUSH1 0x40 MLOAD SWAP5 DUP6 MSTORE PUSH1 0x20 DUP6 ADD MSTORE PUSH1 0x40 DUP5 ADD MSTORE PUSH1 0x60 DUP4 ADD MSTORE ISZERO ISZERO PUSH1 0x80 DUP3 ADD MSTORE RETURN JUMPDEST POP CALLVALUE PUSH2 0x17C JUMPI PUSH1 0x20 CALLDATASIZE PUSH1 0x3 NOT ADD SLT PUSH2 0x17C JUMPI PUSH1 0x4 CALLDATALOAD PUSH1 0x1 PUSH1 0x1 PUSH1 0xA0 SHL SUB DUP2 AND SWAP1 DUP2 SWAP1 SUB PUSH2 0x17A JUMPI PUSH1 0x40 MLOAD PUSH4 0x154D4AA5 PUSH1 0xE0 SHL DUP2 MSTORE PUSH1 0x4 DUP2 ADD SWAP2 SWAP1 SWAP2 MSTORE PUSH1 0x20 DUP2 PUSH1 0x24 DUP2 PUSH1 0x6 PUSH1 0xFF PUSH1 0x98 SHL ADD GAS STATICCALL SWAP1 DUP2 ISZERO PUSH2 0x82A JUMPI DUP3 SWAP2 PUSH2 0x8AE JUMPI PUSH1 0x20 DUP3 PUSH1 0x40 MLOAD SWAP1 DUP2 MSTORE RETURN JUMPDEST POP CALLVALUE PUSH2 0x17C JUMPI DUP1 PUSH1 0x3 NOT CALLDATASIZE ADD SLT PUSH2 0x17C JUMPI PUSH1 0x20 PUSH1 0x40 MLOAD PUSH2 0x708 DUP2 MSTORE RETURN JUMPDEST SWAP1 POP CALLVALUE PUSH2 0x17A JUMPI DUP2 PUSH1 0x3 NOT CALLDATASIZE ADD SLT PUSH2 0x17A JUMPI PUSH1 0x6 PUSH1 0xFF PUSH1 0x98 SHL ADD DUP2 MSTORE PUSH1 0x20 SWAP1 RETURN JUMPDEST CALLVALUE PUSH2 0x30C JUMPI PUSH1 0x0 CALLDATASIZE PUSH1 0x3 NOT ADD SLT PUSH2 0x30C JUMPI PUSH1 0x20 PUSH1 0x40 MLOAD PUSH4 0x5F5E100 DUP2 MSTORE RETURN JUMPDEST SWAP1 PUSH1 0x1F DUP1 NOT SWAP2 ADD AND DUP2 ADD SWAP1 DUP2 LT PUSH8 0xFFFFFFFFFFFFFFFF DUP3 GT OR PUSH2 0xBF6 JUMPI PUSH1 0x40 MSTORE JUMP JUMPDEST PUSH4 0x4E487B71 PUSH1 0xE0 SHL PUSH1 0x0 MSTORE PUSH1 0x41 PUSH1 0x4 MSTORE PUSH1 0x24 PUSH1 0x0 REVERT JUMPDEST SWAP1 DUP2 PUSH1 0x20 SWAP2 SUB SLT PUSH2 0x30C JUMPI MLOAD DUP1 ISZERO ISZERO DUP2 SUB PUSH2 0x30C JUMPI SWAP1 JUMP JUMPDEST SWAP2 SWAP1 DUP3 SUB SWAP2 DUP3 GT PUSH2 0xC31 JUMPI JUMP JUMPDEST PUSH4 0x4E487B71 PUSH1 0xE0 SHL PUSH1 0x0 MSTORE PUSH1 0x11 PUSH1 0x4 MSTORE PUSH1 0x24 PUSH1 0x0 REVERT JUMPDEST PUSH1 0x2 PUSH1 0x1 SLOAD EQ PUSH2 0xC58 JUMPI PUSH1 0x2 PUSH1 0x1 SSTORE JUMP JUMPDEST PUSH4 0x3EE5AEB5 PUSH1 0xE0 SHL PUSH1 0x0 MSTORE PUSH1 0x4 PUSH1 0x0 REVERT JUMPDEST PUSH1 0x40 MLOAD PUSH4 0x154D4AA5 PUSH1 0xE0 SHL DUP2 MSTORE PUSH1 0x1 PUSH1 0x1 PUSH1 0xA0 SHL SUB SWAP1 SWAP3 AND PUSH1 0x4 DUP4 ADD MSTORE PUSH1 0x20 DUP3 PUSH1 0x24 DUP2 PUSH1 0x6 PUSH1 0xFF PUSH1 0x98 SHL ADD GAS STATICCALL SWAP2 DUP3 ISZERO PUSH2 0xDA4 JUMPI PUSH1 0x0 SWAP3 PUSH2 0xDC8 JUMPI JUMPDEST POP PUSH1 0x40 MLOAD SWAP2 PUSH1 0x20 DUP4 ADD MSTORE PUSH32 0x6DDF6E1D765A193D9CBE146CEEB79AC1CB485ED5F5B37913A8CF5857EFF00A9 PUSH1 0x40 DUP4 ADD MSTORE PUSH1 0x60 DUP3 ADD MSTORE PUSH1 0x60 DUP2 MSTORE PUSH2 0xCE9 PUSH1 0x80 DUP3 PUSH2 0xBD4 JUMP JUMPDEST PUSH1 0x40 MLOAD SWAP1 PUSH4 0x4A890F31 PUSH1 0xE0 SHL DUP3 MSTORE PUSH32 0x8C97258F4E2489F1BB3D1029148E0D830B5A1399DAFF1084048E7BD8DBE9F859 PUSH1 0x4 DUP4 ADD MSTORE PUSH1 0x40 PUSH1 0x24 DUP4 ADD MSTORE DUP2 DUP2 MLOAD SWAP2 DUP3 PUSH1 0x44 DUP4 ADD MSTORE PUSH1 0x0 JUMPDEST DUP4 DUP2 LT PUSH2 0xDB0 JUMPI POP POP PUSH1 0x0 DUP3 DUP3 ADD PUSH1 0x64 SWAP1 DUP2 ADD SWAP2 SWAP1 SWAP2 MSTORE PUSH1 0x20 SWAP3 PUSH1 0x1F ADD PUSH1 0x1F NOT AND DUP3 ADD DUP3 SWAP1 SUB ADD DUP2 PUSH1 0x6 PUSH1 0xFF PUSH1 0x98 SHL ADD GAS STATICCALL SWAP1 DUP2 ISZERO PUSH2 0xDA4 JUMPI PUSH1 0x0 SWAP2 PUSH2 0xD75 JUMPI POP SWAP1 JUMP JUMPDEST SWAP1 POP PUSH1 0x20 DUP2 RETURNDATASIZE PUSH1 0x20 GT PUSH2 0xD9C JUMPI JUMPDEST DUP2 PUSH2 0xD90 PUSH1 0x20 SWAP4 DUP4 PUSH2 0xBD4 JUMP JUMPDEST DUP2 ADD SUB SLT PUSH2 0x30C JUMPI MLOAD SWAP1 JUMP JUMPDEST RETURNDATASIZE SWAP2 POP PUSH2 0xD83 JUMP JUMPDEST PUSH1 0x40 MLOAD RETURNDATASIZE PUSH1 0x0 DUP3 RETURNDATACOPY RETURNDATASIZE SWAP1 REVERT JUMPDEST PUSH1 0x20 DUP3 DUP3 ADD DUP2 ADD MLOAD PUSH1 0x64 DUP8 DUP5 ADD ADD MSTORE DUP6 SWAP4 POP ADD PUSH2 0xD31 JUMP JUMPDEST SWAP1 SWAP2 POP PUSH1 0x20 DUP2 RETURNDATASIZE PUSH1 0x20 GT PUSH2 0xDF4 JUMPI JUMPDEST DUP2 PUSH2 0xDE4 PUSH1 0x20 SWAP4 DUP4 PUSH2 0xBD4 JUMP JUMPDEST DUP2 ADD SUB SLT PUSH2 0x30C JUMPI MLOAD SWAP1 CODESIZE PUSH2 0xCA5 JUMP JUMPDEST RETURNDATASIZE SWAP2 POP PUSH2 0xDD7 JUMP JUMPDEST PUSH1 0x1 PUSH1 0x1 PUSH1 0xA0 SHL SUB AND PUSH1 0x0 SWAP1 DUP2 MSTORE PUSH1 0x2 PUSH1 0x20 MSTORE PUSH1 0x40 SWAP1 KECCAK256 PUSH1 0x3 DUP2 ADD SLOAD PUSH2 0x1A4 DUP2 ADD DUP1 DUP3 GT PUSH2 0xC31 JUMPI TIMESTAMP LT PUSH2 0xE79 JUMPI PUSH2 0xE34 SWAP1 TIMESTAMP PUSH2 0xC24 JUMP JUMPDEST SWAP1 PUSH2 0x708 DUP3 LT DUP1 ISZERO SWAP1 PUSH2 0xE6B JUMPI JUMPDEST PUSH2 0xE62 JUMPI PUSH1 0x1 ADD SLOAD DUP2 DUP2 MUL SWAP2 DUP2 DUP4 DIV EQ SWAP1 ISZERO OR ISZERO PUSH2 0xC31 JUMPI PUSH2 0x708 SWAP1 DIV SWAP1 JUMP JUMPDEST PUSH1 0x1 SWAP2 POP ADD SLOAD SWAP1 JUMP JUMPDEST POP PUSH1 0xFF PUSH1 0x4 DUP3 ADD SLOAD AND PUSH2 0xE42 JUMP JUMPDEST POP POP PUSH1 0x0 SWAP1 JUMP JUMPDEST PUSH1 0x0 SLOAD PUSH1 0x1 PUSH1 0x1 PUSH1 0xA0 SHL SUB AND CALLER SUB PUSH2 0xE94 JUMPI JUMP JUMPDEST PUSH4 0x118CDAA7 PUSH1 0xE0 SHL PUSH1 0x0 MSTORE CALLER PUSH1 0x4 MSTORE PUSH1 0x24 PUSH1 0x0 REVERT INVALID LOG2 PUSH5 0x6970667358 0x22 SLT KECCAK256 DUP6 SLT 0xB5 PUSH21 0x6B04CD32E306A13FB76D4EACC34676DCF8299B1A78 0xDE 0xC4 PUSH0 0xE1 SLOAD MCOPY 0xC4 PUSH5 0x736F6C6343 STOP ADDMOD SHR STOP CALLER "
        },
        "methodIdentifiers": {
          "CALL_SOLANA()": "00b8d849",
          "MAX_STAKE()": "c98517c5",
          "MIN_STAKE()": "cb1c2b5c",
          "STAKE_MULTIPLE()": "4322f847",
          "TOKENS_PER_STAKE()": "c15eb03e",
          "VESTING_CLIFF()": "63f3dbe5",
          "VESTING_PERIOD()": "0197d972",
          "claim()": "4e71d92d",
          "getNeonAddress(address)": "154d4aa5",
          "getPayer()": "30aa81c6",
          "owner()": "8da5cb5b",
          "renounceOwnership()": "715018a6",
          "stake(uint256)": "a694fc3a",
          "stakes(address)": "16934fc4",
          "transferOwnership(address)": "f2fde38b",
          "unstake()": "2def6620",
          "usdtToken()": "a98ad46c",
          "withdrawFeesToSolana(bytes32,uint64)": "d7bcc145",
          "wsolToken()": "92827585"
        }
      },
      "storageLayout": {
        "storage": [
          {
            "astId": 8,
            "contract": "contracts/stakingContract.sol:LiquidStaking",
            "label": "_owner",
            "offset": 0,
            "slot": "0",
            "type": "t_address"
          },
          {
            "astId": 820,
            "contract": "contracts/stakingContract.sol:LiquidStaking",
            "label": "_status",
            "offset": 0,
            "slot": "1",
            "type": "t_uint256"
          },
          {
            "astId": 1537,
            "contract": "contracts/stakingContract.sol:LiquidStaking",
            "label": "stakes",
            "offset": 0,
            "slot": "2",
            "type": "t_mapping(t_address,t_struct(Stake)1532_storage)"
          }
        ],
        "types": {
          "t_address": {
            "encoding": "inplace",
            "label": "address",
            "numberOfBytes": "20"
          },
          "t_bool": {
            "encoding": "inplace",
            "label": "bool",
            "numberOfBytes": "1"
          },
          "t_mapping(t_address,t_struct(Stake)1532_storage)": {
            "encoding": "mapping",
            "key": "t_address",
            "label": "mapping(address => struct LiquidStaking.Stake)",
            "numberOfBytes": "32",
            "value": "t_struct(Stake)1532_storage"
          },
          "t_struct(Stake)1532_storage": {
            "encoding": "inplace",
            "label": "struct LiquidStaking.Stake",
            "members": [
              {
                "astId": 1523,
                "contract": "contracts/stakingContract.sol:LiquidStaking",
                "label": "wsolAmount",
                "offset": 0,
                "slot": "0",
                "type": "t_uint256"
              },
              {
                "astId": 1525,
                "contract": "contracts/stakingContract.sol:LiquidStaking",
                "label": "usdtTokensGranted",
                "offset": 0,
                "slot": "1",
                "type": "t_uint256"
              },
              {
                "astId": 1527,
                "contract": "contracts/stakingContract.sol:LiquidStaking",
                "label": "usdtTokensClaimed",
                "offset": 0,
                "slot": "2",
                "type": "t_uint256"
              },
              {
                "astId": 1529,
                "contract": "contracts/stakingContract.sol:LiquidStaking",
                "label": "startTime",
                "offset": 0,
                "slot": "3",
                "type": "t_uint256"
              },
              {
                "astId": 1531,
                "contract": "contracts/stakingContract.sol:LiquidStaking",
                "label": "unstaked",
                "offset": 0,
                "slot": "4",
                "type": "t_bool"
              }
            ],
            "numberOfBytes": "160"
          },
          "t_uint256": {
            "encoding": "inplace",
            "label": "uint256",
            "numberOfBytes": "32"
          }
        }
      }
    }
  }
}