{
  "_format": "hh-sol-artifact-1",
  "contractName": "LiquidStaking",
  "sourceName": "contracts/stakingContract.sol",
  "abi": [
    {
      "inputs": [
        {
          "internalType": "address",
          "name": "_wsolToken",
          "type": "address"
        },
        {
          "internalType": "address",
          "name": "_usdtToken",
          "type": "address"
        }
      ],
      "stateMutability": "nonpayable",
      "type": "constructor"
    },
    {
      "inputs": [],
      "name": "AlreadyStaked",
      "type": "error"
    },
    {
      "inputs": [],
      "name": "InvalidAmount",
      "type": "error"
    },
    {
      "inputs": [],
      "name": "InvalidStaker",
      "type": "error"
    },
    {
      "inputs": [],
      "name": "NothingToClaim",
      "type": "error"
    },
    {
      "inputs": [],
      "name": "NothingToUnstake",
      "type": "error"
    },
    {
      "inputs": [
        {
          "internalType": "address",
          "name": "owner",
          "type": "address"
        }
      ],
      "name": "OwnableInvalidOwner",
      "type": "error"
    },
    {
      "inputs": [
        {
          "internalType": "address",
          "name": "account",
          "type": "address"
        }
      ],
      "name": "OwnableUnauthorizedAccount",
      "type": "error"
    },
    {
      "inputs": [],
      "name": "ReentrancyGuardReentrantCall",
      "type": "error"
    },
    {
      "inputs": [],
      "name": "SolanaTransferFailed",
      "type": "error"
    },
    {
      "inputs": [],
      "name": "VestingCliffNotReached",
      "type": "error"
    },
    {
      "anonymous": false,
      "inputs": [
        {
          "indexed": true,
          "internalType": "address",
          "name": "previousOwner",
          "type": "address"
        },
        {
          "indexed": true,
          "internalType": "address",
          "name": "newOwner",
          "type": "address"
        }
      ],
      "name": "OwnershipTransferred",
      "type": "event"
    },
    {
      "anonymous": false,
      "inputs": [
        {
          "indexed": true,
          "internalType": "address",
          "name": "receiver",
          "type": "address"
        },
        {
          "indexed": false,
          "internalType": "uint256",
          "name": "amount",
          "type": "uint256"
        }
      ],
      "name": "PayoutReceived",
      "type": "event"
    },
    {
      "anonymous": false,
      "inputs": [
        {
          "indexed": true,
          "internalType": "address",
          "name": "user",
          "type": "address"
        },
        {
          "indexed": false,
          "internalType": "uint256",
          "name": "wsolAmount",
          "type": "uint256"
        },
        {
          "indexed": false,
          "internalType": "uint256",
          "name": "usdtTokensGranted",
          "type": "uint256"
        }
      ],
      "name": "Staked",
      "type": "event"
    },
    {
      "anonymous": false,
      "inputs": [
        {
          "indexed": true,
          "internalType": "address",
          "name": "user",
          "type": "address"
        },
        {
          "indexed": false,
          "internalType": "uint256",
          "name": "amount",
          "type": "uint256"
        }
      ],
      "name": "TokensClaimed",
      "type": "event"
    },
    {
      "anonymous": false,
      "inputs": [
        {
          "indexed": true,
          "internalType": "address",
          "name": "user",
          "type": "address"
        },
        {
          "indexed": false,
          "internalType": "uint256",
          "name": "wsolAmount",
          "type": "uint256"
        }
      ],
      "name": "Unstaked",
      "type": "event"
    },
    {
      "inputs": [],
      "name": "CALL_SOLANA",
      "outputs": [
        {
          "internalType": "contract ICallSolana",
          "name": "",
          "type": "address"
        }
      ],
      "stateMutability": "view",
      "type": "function"
    },
    {
      "inputs": [],
      "name": "MAX_STAKE",
      "outputs": [
        {
          "internalType": "uint256",
          "name": "",
          "type": "uint256"
        }
      ],
      "stateMutability": "view",
      "type": "function"
    },
    {
      "inputs": [],
      "name": "MIN_STAKE",
      "outputs": [
        {
          "internalType": "uint256",
          "name": "",
          "type": "uint256"
        }
      ],
      "stateMutability": "view",
      "type": "function"
    },
    {
      "inputs": [],
      "name": "STAKE_MULTIPLE",
      "outputs": [
        {
          "internalType": "uint256",
          "name": "",
          "type": "uint256"
        }
      ],
      "stateMutability": "view",
      "type": "function"
    },
    {
      "inputs": [],
      "name": "TOKENS_PER_STAKE",
      "outputs": [
        {
          "internalType": "uint256",
          "name": "",
          "type": "uint256"
        }
      ],
      "stateMutability": "view",
      "type": "function"
    },
    {
      "inputs": [],
      "name": "VESTING_CLIFF",
      "outputs": [
        {
          "internalType": "uint256",
          "name": "",
          "type": "uint256"
        }
      ],
      "stateMutability": "view",
      "type": "function"
    },
    {
      "inputs": [],
      "name": "VESTING_PERIOD",
      "outputs": [
        {
          "internalType": "uint256",
          "name": "",
          "type": "uint256"
        }
      ],
      "stateMutability": "view",
      "type": "function"
    },
    {
      "inputs": [],
      "name": "claim",
      "outputs": [],
      "stateMutability": "nonpayable",
      "type": "function"
    },
    {
      "inputs": [
        {
          "internalType": "address",
          "name": "_address",
          "type": "address"
        }
      ],
      "name": "getNeonAddress",
      "outputs": [
        {
          "internalType": "bytes32",
          "name": "",
          "type": "bytes32"
        }
      ],
      "stateMutability": "view",
      "type": "function"
    },
    {
      "inputs": [],
      "name": "getPayer",
      "outputs": [
        {
          "internalType": "bytes32",
          "name": "",
          "type": "bytes32"
        }
      ],
      "stateMutability": "view",
      "type": "function"
    },
    {
      "inputs": [],
      "name": "owner",
      "outputs": [
        {
          "internalType": "address",
          "name": "",
          "type": "address"
        }
      ],
      "stateMutability": "view",
      "type": "function"
    },
    {
      "inputs": [],
      "name": "renounceOwnership",
      "outputs": [],
      "stateMutability": "nonpayable",
      "type": "function"
    },
    {
      "inputs": [
        {
          "internalType": "uint256",
          "name": "amount",
          "type": "uint256"
        }
      ],
      "name": "stake",
      "outputs": [],
      "stateMutability": "nonpayable",
      "type": "function"
    },
    {
      "inputs": [
        {
          "internalType": "address",
          "name": "",
          "type": "address"
        }
      ],
      "name": "stakes",
      "outputs": [
        {
          "internalType": "uint256",
          "name": "wsolAmount",
          "type": "uint256"
        },
        {
          "internalType": "uint256",
          "name": "usdtTokensGranted",
          "type": "uint256"
        },
        {
          "internalType": "uint256",
          "name": "usdtTokensClaimed",
          "type": "uint256"
        },
        {
          "internalType": "uint256",
          "name": "startTime",
          "type": "uint256"
        },
        {
          "internalType": "bool",
          "name": "unstaked",
          "type": "bool"
        }
      ],
      "stateMutability": "view",
      "type": "function"
    },
    {
      "inputs": [
        {
          "internalType": "address",
          "name": "newOwner",
          "type": "address"
        }
      ],
      "name": "transferOwnership",
      "outputs": [],
      "stateMutability": "nonpayable",
      "type": "function"
    },
    {
      "inputs": [],
      "name": "unstake",
      "outputs": [],
      "stateMutability": "nonpayable",
      "type": "function"
    },
    {
      "inputs": [],
      "name": "usdtToken",
      "outputs": [
        {
          "internalType": "contract IERC20ForSpl",
          "name": "",
          "type": "address"
        }
      ],
      "stateMutability": "view",
      "type": "function"
    },
    {
      "inputs": [
        {
          "internalType": "bytes32",
          "name": "solanaRecipient",
          "type": "bytes32"
        },
        {
          "internalType": "uint64",
          "name": "amount",
          "type": "uint64"
        }
      ],
      "name": "withdrawFeesToSolana",
      "outputs": [],
      "stateMutability": "nonpayable",
      "type": "function"
    },
    {
      "inputs": [],
      "name": "wsolToken",
      "outputs": [
        {
          "internalType": "contract IERC20ForSpl",
          "name": "",
          "type": "address"
        }
      ],
      "stateMutability": "view",
      "type": "function"
    }
  ],
  "bytecode": "0x60c03461010757601f61101638819003918201601f19168301916001600160401b0383118484101761010c57808492604094855283398101031261010757610052602061004b83610122565b9201610122565b33156100f15760008054336001600160a01b0319821681178355604051949290916001600160a01b0316907f8be0079c531659141344cd1fd0a4f28419497f9722a3daafe3b4186f6b6457e09080a3600180556001600160a01b039081166080521660a052610edf908161013782396080518181816101bf015281816104090152818161064f0152610928015260a05181818161037c01526107870152f35b631e4fbdf760e01b600052600060045260246000fd5b600080fd5b634e487b7160e01b600052604160045260246000fd5b51906001600160a01b03821682036101075756fe608080604052600436101561001357600080fd5b600090813560e01c908162b8d84914610b94575080630197d97214610b77578063154d4aa514610b1357806316934fc414610aa45780632def6620146108e457806330aa81c6146108675780634322f847146103245780634e71d92d1461071c57806363f3dbe5146106ff578063715018a6146106a55780638da5cb5b1461067e5780639282758514610639578063a694fc3a146103ab578063a98ad46c14610366578063c15eb03e14610348578063c98517c514610329578063cb1c2b5c14610324578063d7bcc1451461017f5763f2fde38b146100f157600080fd5b3461017c57602036600319011261017c576004356001600160a01b0381169081900361017a5761011f610e80565b80156101665781546001600160a01b03198116821783556001600160a01b03167f8be0079c531659141344cd1fd0a4f28419497f9722a3daafe3b4186f6b6457e08380a380f35b631e4fbdf760e01b82526004829052602482fd5b505b80fd5b503461017c57604036600319011261017c576024358167ffffffffffffffff82169182810361017a576101b0610e80565b60405163af25c07760e01b81527f00000000000000000000000000000000000000000000000000000000000000006001600160a01b03169190602081600481865afa9081156103195784916102d9575b5091610249916102136020943090610c69565b5060405163af554c5b60e01b8152600480359082015267ffffffffffffffff909116602482015293849283919082906044820190565b03925af19081156102ce57839161029f575b5015610290577f2d5e137b1497c023a774dfe9cbee173d2a334f2ff5e98467662cafa7926f5cdb60208392604051908152a280f35b63040d12f760e21b8252600482fd5b6102c1915060203d6020116102c7575b6102b98183610bd4565b810190610c0c565b3861025b565b503d6102af565b6040513d85823e3d90fd5b91929350506020813d602011610311575b816102f760209383610bd4565b8101031261030c575184929190610249610200565b600080fd5b3d91506102ea565b6040513d86823e3d90fd5b610bb5565b503461017c578060031936011261017c576020604051633b9aca008152f35b503461017c578060031936011261017c576020604051620186a08152f35b503461017c578060031936011261017c576040517f00000000000000000000000000000000000000000000000000000000000000006001600160a01b03168152602090f35b503461017c57602036600319011261017c576004356103c8610c47565b331561062a573382526002602052604082205461061b576305f5e1008110158061060d575b806105ff575b156105f05760405163af25c07760e01b815282907f00000000000000000000000000000000000000000000000000000000000000006001600160a01b031690602081600481855afa9081156102ce5783916105b8575b5060209161045b61048f923090610c69565b60405163af554c5b60e01b8152600481019190915267ffffffffffffffff8616602482015293849283919082906044820190565b03925af19081156102ce578391610599575b5015610290576305f5e1008104620186a0810290808204620186a014901517156105855760405160a0810181811067ffffffffffffffff8211176105715760405282815260046020820191838352604081018681526060820190428252608083019488865233895260026020526040892093518455516001840155516002830155516003820155019051151560ff8019835416911617905560405191825260208201527f1449c6dd7851abc30abf37f57715f492010519147cc2652fbc38202c18a6ee9060403392a26001805580f35b634e487b7160e01b85526041600452602485fd5b634e487b7160e01b83526011600452602483fd5b6105b2915060203d6020116102c7576102b98183610bd4565b386104a1565b9250506020823d6020116105e8575b816105d460209383610bd4565b8101031261030c5790518391906020610449565b3d91506105c7565b63162908e360e11b8252600482fd5b506305f5e1008106156103f3565b50633b9aca008111156103ed565b630ae3514d60e01b8252600482fd5b63707ef02360e01b8252600482fd5b503461017c578060031936011261017c576040517f00000000000000000000000000000000000000000000000000000000000000006001600160a01b03168152602090f35b503461017c578060031936011261017c57546040516001600160a01b039091168152602090f35b503461017c578060031936011261017c576106be610e80565b80546001600160a01b03198116825581906001600160a01b03167f8be0079c531659141344cd1fd0a4f28419497f9722a3daafe3b4186f6b6457e08280a380f35b503461017c578060031936011261017c5760206040516101a48152f35b503461017c578060031936011261017c57610735610c47565b3381526002602052604081209060038201546101a4810180911161085357421061084457600261076433610dfc565b92019161077383548092610c24565b9283156108355783820180921161058557557f00000000000000000000000000000000000000000000000000000000000000006001600160a01b0316803b1561017a578180916044604051809481936340c10f1960e01b83523360048401528860248401525af1801561082a5761081a575b50906040519081527f896e034966eaaf1adc54acc0f257056febbd300c9e47182cf761982cf1f5e43060203392a26001805580f35b8161082491610bd4565b386107e5565b6040513d84823e3d90fd5b6312d37ee560e31b8352600483fd5b632d47614560e21b8152600490fd5b634e487b7160e01b82526011600452602482fd5b503461017c578060031936011261017c5760405163185540e360e11b8152602081600481600660ff60981b015afa90811561082a5782916108ae575b602082604051908152f35b90506020813d6020116108dc575b816108c960209383610bd4565b8101031261017a576020915051386108a3565b3d91506108bc565b503461017c578060031936011261017c576108fd610c47565b338152600260205260408120805480158015610a96575b610a875760405163af25c07760e01b8152907f00000000000000000000000000000000000000000000000000000000000000006001600160a01b031684602084600481855afa938415610a7a578194610a36575b509067ffffffffffffffff602093926109856109bc963390610c69565b936040519687958694859363af554c5b60e01b855216906004840190929167ffffffffffffffff6020916040840195845216910152565b03925af19081156102ce578391610a17575b50156102905760048101600160ff19825416179055546040519081527f0f5bb82176feb1b5e747e28471aa92156a04d9f3ab9f45f28e2d704232b93f7560203392a26001805580f35b610a30915060203d6020116102c7576102b98183610bd4565b386109ce565b935091906020843d602011610a72575b81610a5360209383610bd4565b81010312610a6e57925192909167ffffffffffffffff610968565b8280fd5b3d9150610a46565b50604051903d90823e3d90fd5b63422f6e3560e11b8352600483fd5b5060ff600483015416610914565b503461017c57602036600319011261017c576004356001600160a01b0381169081900361017a578160409160a09352600260205220805490600181015490600281015460ff60046003840154930154169260405194855260208501526040840152606083015215156080820152f35b503461017c57602036600319011261017c576004356001600160a01b0381169081900361017a5760405163154d4aa560e01b81526004810191909152602081602481600660ff60981b015afa90811561082a5782916108ae57602082604051908152f35b503461017c578060031936011261017c5760206040516107088152f35b90503461017a578160031936011261017a57600660ff60981b018152602090f35b3461030c57600036600319011261030c5760206040516305f5e1008152f35b90601f8019910116810190811067ffffffffffffffff821117610bf657604052565b634e487b7160e01b600052604160045260246000fd5b9081602091031261030c5751801515810361030c5790565b91908203918211610c3157565b634e487b7160e01b600052601160045260246000fd5b600260015414610c58576002600155565b633ee5aeb560e01b60005260046000fd5b60405163154d4aa560e01b81526001600160a01b039092166004830152602082602481600660ff60981b015afa918215610da457600092610dc8575b506040519160208301527f06ddf6e1d765a193d9cbe146ceeb79ac1cb485ed5f5b37913a8cf5857eff00a96040830152606082015260608152610ce9608082610bd4565b60405190634a890f3160e01b82527f8c97258f4e2489f1bb3d1029148e0d830b5a1399daff1084048e7bd8dbe9f8596004830152604060248301528181519182604483015260005b838110610db05750506000828201606490810191909152602092601f01601f191682018290030181600660ff60981b015afa908115610da457600091610d75575090565b90506020813d602011610d9c575b81610d9060209383610bd4565b8101031261030c575190565b3d9150610d83565b6040513d6000823e3d90fd5b60208282018101516064878401015285935001610d31565b9091506020813d602011610df4575b81610de460209383610bd4565b8101031261030c57519038610ca5565b3d9150610dd7565b6001600160a01b0316600090815260026020526040902060038101546101a48101808211610c31574210610e7957610e349042610c24565b906107088210801590610e6b575b610e625760010154818102918183041490151715610c3157610708900490565b60019150015490565b5060ff600482015416610e42565b5050600090565b6000546001600160a01b03163303610e9457565b63118cdaa760e01b6000523360045260246000fdfea26469706673582212208512b5746b04cd32e306a13fb76d4eacc34676dcf8299b1a78dec45fe1545ec464736f6c634300081c0033",
  "linkReferences": {},
  "deployedLinkReferences": {}
}